{"abi":[{"type":"constructor","inputs":[{"name":"limitOrderProtocol","type":"address","internalType":"address"},{"name":"feeToken","type":"address","internalType":"contract IERC20"},{"name":"accessToken","type":"address","internalType":"contract IERC20"},{"name":"owner","type":"address","internalType":"address"},{"name":"rescueDelaySrc","type":"uint32","internalType":"uint32"},{"name":"rescueDelayDst","type":"uint32","internalType":"uint32"}],"stateMutability":"nonpayable"},{"type":"function","name":"ESCROW_DST_IMPLEMENTATION","inputs":[],"outputs":[{"name":"","type":"address","internalType":"address"}],"stateMutability":"view"},{"type":"function","name":"ESCROW_SRC_IMPLEMENTATION","inputs":[],"outputs":[{"name":"","type":"address","internalType":"address"}],"stateMutability":"view"},{"type":"function","name":"FEE_BANK","inputs":[],"outputs":[{"name":"","type":"address","internalType":"contract IFeeBank"}],"stateMutability":"view"},{"type":"function","name":"addressOfEscrowDst","inputs":[{"name":"immutables","type":"tuple","internalType":"struct IBaseEscrow.Immutables","components":[{"name":"orderHash","type":"bytes32","internalType":"bytes32"},{"name":"hashlock","type":"bytes32","internalType":"bytes32"},{"name":"maker","type":"uint256","internalType":"Address"},{"name":"taker","type":"uint256","internalType":"Address"},{"name":"token","type":"uint256","internalType":"Address"},{"name":"amount","type":"uint256","internalType":"uint256"},{"name":"safetyDeposit","type":"uint256","internalType":"uint256"},{"name":"timelocks","type":"uint256","internalType":"Timelocks"}]}],"outputs":[{"name":"","type":"address","internalType":"address"}],"stateMutability":"view"},{"type":"function","name":"addressOfEscrowSrc","inputs":[{"name":"immutables","type":"tuple","internalType":"struct IBaseEscrow.Immutables","components":[{"name":"orderHash","type":"bytes32","internalType":"bytes32"},{"name":"hashlock","type":"bytes32","internalType":"bytes32"},{"name":"maker","type":"uint256","internalType":"Address"},{"name":"taker","type":"uint256","internalType":"Address"},{"name":"token","type":"uint256","internalType":"Address"},{"name":"amount","type":"uint256","internalType":"uint256"},{"name":"safetyDeposit","type":"uint256","internalType":"uint256"},{"name":"timelocks","type":"uint256","internalType":"Timelocks"}]}],"outputs":[{"name":"","type":"address","internalType":"address"}],"stateMutability":"view"},{"type":"function","name":"availableCredit","inputs":[{"name":"account","type":"address","internalType":"address"}],"outputs":[{"name":"","type":"uint256","internalType":"uint256"}],"stateMutability":"view"},{"type":"function","name":"createDstEscrow","inputs":[{"name":"dstImmutables","type":"tuple","internalType":"struct IBaseEscrow.Immutables","components":[{"name":"orderHash","type":"bytes32","internalType":"bytes32"},{"name":"hashlock","type":"bytes32","internalType":"bytes32"},{"name":"maker","type":"uint256","internalType":"Address"},{"name":"taker","type":"uint256","internalType":"Address"},{"name":"token","type":"uint256","internalType":"Address"},{"name":"amount","type":"uint256","internalType":"uint256"},{"name":"safetyDeposit","type":"uint256","internalType":"uint256"},{"name":"timelocks","type":"uint256","internalType":"Timelocks"}]},{"name":"srcCancellationTimestamp","type":"uint256","internalType":"uint256"}],"outputs":[],"stateMutability":"payable"},{"type":"function","name":"decreaseAvailableCredit","inputs":[{"name":"account","type":"address","internalType":"address"},{"name":"amount","type":"uint256","internalType":"uint256"}],"outputs":[{"name":"allowance","type":"uint256","internalType":"uint256"}],"stateMutability":"nonpayable"},{"type":"function","name":"getMakingAmount","inputs":[{"name":"order","type":"tuple","internalType":"struct IOrderMixin.Order","components":[{"name":"salt","type":"uint256","internalType":"uint256"},{"name":"maker","type":"uint256","internalType":"Address"},{"name":"receiver","type":"uint256","internalType":"Address"},{"name":"makerAsset","type":"uint256","internalType":"Address"},{"name":"takerAsset","type":"uint256","internalType":"Address"},{"name":"makingAmount","type":"uint256","internalType":"uint256"},{"name":"takingAmount","type":"uint256","internalType":"uint256"},{"name":"makerTraits","type":"uint256","internalType":"MakerTraits"}]},{"name":"","type":"bytes","internalType":"bytes"},{"name":"","type":"bytes32","internalType":"bytes32"},{"name":"","type":"address","internalType":"address"},{"name":"takingAmount","type":"uint256","internalType":"uint256"},{"name":"","type":"uint256","internalType":"uint256"},{"name":"extraData","type":"bytes","internalType":"bytes"}],"outputs":[{"name":"","type":"uint256","internalType":"uint256"}],"stateMutability":"view"},{"type":"function","name":"getTakingAmount","inputs":[{"name":"order","type":"tuple","internalType":"struct IOrderMixin.Order","components":[{"name":"salt","type":"uint256","internalType":"uint256"},{"name":"maker","type":"uint256","internalType":"Address"},{"name":"receiver","type":"uint256","internalType":"Address"},{"name":"makerAsset","type":"uint256","internalType":"Address"},{"name":"takerAsset","type":"uint256","internalType":"Address"},{"name":"makingAmount","type":"uint256","internalType":"uint256"},{"name":"takingAmount","type":"uint256","internalType":"uint256"},{"name":"makerTraits","type":"uint256","internalType":"MakerTraits"}]},{"name":"","type":"bytes","internalType":"bytes"},{"name":"","type":"bytes32","internalType":"bytes32"},{"name":"","type":"address","internalType":"address"},{"name":"makingAmount","type":"uint256","internalType":"uint256"},{"name":"","type":"uint256","internalType":"uint256"},{"name":"extraData","type":"bytes","internalType":"bytes"}],"outputs":[{"name":"","type":"uint256","internalType":"uint256"}],"stateMutability":"view"},{"type":"function","name":"increaseAvailableCredit","inputs":[{"name":"account","type":"address","internalType":"address"},{"name":"amount","type":"uint256","internalType":"uint256"}],"outputs":[{"name":"allowance","type":"uint256","internalType":"uint256"}],"stateMutability":"nonpayable"},{"type":"function","name":"lastValidated","inputs":[{"name":"key","type":"bytes32","internalType":"bytes32"}],"outputs":[{"name":"index","type":"uint256","internalType":"uint256"},{"name":"leaf","type":"bytes32","internalType":"bytes32"}],"stateMutability":"view"},{"type":"function","name":"postInteraction","inputs":[{"name":"order","type":"tuple","internalType":"struct IOrderMixin.Order","components":[{"name":"salt","type":"uint256","internalType":"uint256"},{"name":"maker","type":"uint256","internalType":"Address"},{"name":"receiver","type":"uint256","internalType":"Address"},{"name":"makerAsset","type":"uint256","internalType":"Address"},{"name":"takerAsset","type":"uint256","internalType":"Address"},{"name":"makingAmount","type":"uint256","internalType":"uint256"},{"name":"takingAmount","type":"uint256","internalType":"uint256"},{"name":"makerTraits","type":"uint256","internalType":"MakerTraits"}]},{"name":"extension","type":"bytes","internalType":"bytes"},{"name":"orderHash","type":"bytes32","internalType":"bytes32"},{"name":"taker","type":"address","internalType":"address"},{"name":"makingAmount","type":"uint256","internalType":"uint256"},{"name":"takingAmount","type":"uint256","internalType":"uint256"},{"name":"remainingMakingAmount","type":"uint256","internalType":"uint256"},{"name":"extraData","type":"bytes","internalType":"bytes"}],"outputs":[],"stateMutability":"nonpayable"},{"type":"function","name":"preInteraction","inputs":[{"name":"order","type":"tuple","internalType":"struct IOrderMixin.Order","components":[{"name":"salt","type":"uint256","internalType":"uint256"},{"name":"maker","type":"uint256","internalType":"Address"},{"name":"receiver","type":"uint256","internalType":"Address"},{"name":"makerAsset","type":"uint256","internalType":"Address"},{"name":"takerAsset","type":"uint256","internalType":"Address"},{"name":"makingAmount","type":"uint256","internalType":"uint256"},{"name":"takingAmount","type":"uint256","internalType":"uint256"},{"name":"makerTraits","type":"uint256","internalType":"MakerTraits"}]},{"name":"extension","type":"bytes","internalType":"bytes"},{"name":"orderHash","type":"bytes32","internalType":"bytes32"},{"name":"taker","type":"address","internalType":"address"},{"name":"makingAmount","type":"uint256","internalType":"uint256"},{"name":"takingAmount","type":"uint256","internalType":"uint256"},{"name":"remainingMakingAmount","type":"uint256","internalType":"uint256"},{"name":"extraData","type":"bytes","internalType":"bytes"}],"outputs":[],"stateMutability":"nonpayable"},{"type":"function","name":"takerInteraction","inputs":[{"name":"","type":"tuple","internalType":"struct IOrderMixin.Order","components":[{"name":"salt","type":"uint256","internalType":"uint256"},{"name":"maker","type":"uint256","internalType":"Address"},{"name":"receiver","type":"uint256","internalType":"Address"},{"name":"makerAsset","type":"uint256","internalType":"Address"},{"name":"takerAsset","type":"uint256","internalType":"Address"},{"name":"makingAmount","type":"uint256","internalType":"uint256"},{"name":"takingAmount","type":"uint256","internalType":"uint256"},{"name":"makerTraits","type":"uint256","internalType":"MakerTraits"}]},{"name":"extension","type":"bytes","internalType":"bytes"},{"name":"orderHash","type":"bytes32","internalType":"bytes32"},{"name":"","type":"address","internalType":"address"},{"name":"","type":"uint256","internalType":"uint256"},{"name":"","type":"uint256","internalType":"uint256"},{"name":"","type":"uint256","internalType":"uint256"},{"name":"extraData","type":"bytes","internalType":"bytes"}],"outputs":[],"stateMutability":"nonpayable"},{"type":"event","name":"DstEscrowCreated","inputs":[{"name":"escrow","type":"address","indexed":false,"internalType":"address"},{"name":"hashlock","type":"bytes32","indexed":false,"internalType":"bytes32"},{"name":"taker","type":"uint256","indexed":false,"internalType":"Address"}],"anonymous":false},{"type":"event","name":"SrcEscrowCreated","inputs":[{"name":"srcImmutables","type":"tuple","indexed":false,"internalType":"struct IBaseEscrow.Immutables","components":[{"name":"orderHash","type":"bytes32","internalType":"bytes32"},{"name":"hashlock","type":"bytes32","internalType":"bytes32"},{"name":"maker","type":"uint256","internalType":"Address"},{"name":"taker","type":"uint256","internalType":"Address"},{"name":"token","type":"uint256","internalType":"Address"},{"name":"amount","type":"uint256","internalType":"uint256"},{"name":"safetyDeposit","type":"uint256","internalType":"uint256"},{"name":"timelocks","type":"uint256","internalType":"Timelocks"}]},{"name":"dstImmutablesComplement","type":"tuple","indexed":false,"internalType":"struct IEscrowFactory.DstImmutablesComplement","components":[{"name":"maker","type":"uint256","internalType":"Address"},{"name":"amount","type":"uint256","internalType":"uint256"},{"name":"token","type":"uint256","internalType":"Address"},{"name":"safetyDeposit","type":"uint256","internalType":"uint256"},{"name":"chainId","type":"uint256","internalType":"uint256"}]}],"anonymous":false},{"type":"error","name":"AccessDenied","inputs":[]},{"type":"error","name":"FailedDeployment","inputs":[]},{"type":"error","name":"InsufficientBalance","inputs":[{"name":"balance","type":"uint256","internalType":"uint256"},{"name":"needed","type":"uint256","internalType":"uint256"}]},{"type":"error","name":"InsufficientEscrowBalance","inputs":[]},{"type":"error","name":"InvalidCreationTime","inputs":[]},{"type":"error","name":"InvalidPartialFill","inputs":[]},{"type":"error","name":"InvalidProof","inputs":[]},{"type":"error","name":"InvalidSecretsAmount","inputs":[]},{"type":"error","name":"NotEnoughCredit","inputs":[]},{"type":"error","name":"OnlyFeeBankAccess","inputs":[]},{"type":"error","name":"OnlyLimitOrderProtocol","inputs":[]},{"type":"error","name":"ResolverCanNotFillOrder","inputs":[]},{"type":"error","name":"SafeTransferFromFailed","inputs":[]}],"bytecode":{"object":"0x61018034620002df576001600160401b0390601f6200511c38819003918201601f19168301919084831184841017620002b7578160c09285926040958652833981010312620002df576200005382620002e3565b6200006160208401620002e3565b936200006f838501620002e3565b916200009b60a06200008460608801620002e3565b966200009360808201620002f8565b5001620002f8565b958160805284519061121f80830183811086821117620002b757606092849262003efd84393082526001600160a01b039081166020830152988916888201520301905ff08015620002d557851660a0528260c05260e0528251610fa38082019082821084831117620002b75784888493620001369362002f5a863963ffffffff90911681526001600160a01b03909116602082015260400190565b03905ff0948515620002cb578461010096168652835192610bb9918285019385851090851117620002b75784936200018e93620023a1863963ffffffff90911681526001600160a01b03909116602082015260400190565b03905ff0918215620002ad57806101209316835262000234620001ec82865116763d602d80600a3d3981f3363d3d373d3d3d363d73000000906e5af43d82803e903d91602b57fd5bf36020528060115260881c175f52603760092090565b91610140928352845116763d602d80600a3d3981f3363d3d373d3d3d363d73000000906e5af43d82803e903d91602b57fd5bf36020528060115260881c175f52603760092090565b91610160928352519261209694856200030b8639608051858181610b7401526118c1015260a051858181610a0001528181611791015261181f015260c05185611619015260e0518561067a015251848181610ac001526110dd015251838181610247015261062701525182610108015251816105b70152f35b50513d5f823e3d90fd5b634e487b7160e01b5f52604160045260245ffd5b83513d5f823e3d90fd5b84513d5f823e3d90fd5b5f80fd5b51906001600160a01b0382168203620002df57565b519063ffffffff82168203620002df5756fe6080806040526004361015610012575f80fd5b5f905f3560e01c9081630986bdd514611892575080631d9671c3146118435780632ce26aeb146117d55780633ee5ef1f14611741578063462ebde214610b465780635886216f14610ae45780637040f17314610a7557806385eda2de146109af578063acf4ce5c1461095d578063adf38ba11461064b578063ba551177146105dc578063be58e91c14610571578063d7ff8a801461046a578063dea024e41461014e5763fb6bd47e146100c3575f80fd5b3461014b5761010090817ffffffffffffffffffffffffffffffffffffffffffffffffffffffffffffffffc36011261014b57602061012d8360405181600482372030907f000000000000000000000000000000000000000000000000000000000000000090611f11565b73ffffffffffffffffffffffffffffffffffffffff60405191168152f35b80fd5b507ffffffffffffffffffffffffffffffffffffffffffffffffffffffffffffffffc3601610120811261046657610100809112610466576084359073ffffffffffffffffffffffffffffffffffffffff9081831660c435809382159182610454575b340361042a57604051936101c385611afe565b600435855260243594856020820152604435604082015260643597886060830152608082015260a081019660a435885260c08201524260e01b7bffffffffffffffffffffffffffffffffffffffffffffffffffffffff60e43516178060e083015261023f610104359163ffffffff8160c01c169060e01c611ac8565b1161040057207f00000000000000000000000000000000000000000000000000000000000000003447106103c957763d602d80600a3d3981f3363d3d373d3d3d363d73000000906e5af43d82803e903d91602b57fd5bf36020528060115260881c175f526037600934f590811694851561039f578792156102f6575b827fc30e111dcc74fddc2c3a4d98ffb97adec4485c0a687946bf5b22c2a99c7ff96d6060888a8960405192835260208301526040820152a180f35b6020929160649196959651604051917f23b872dd0000000000000000000000000000000000000000000000000000000083523360048401526024830152604482015282855af1908161037d575b501561035357905f8481806102bb565b60046040517ff4059071000000000000000000000000000000000000000000000000000000008152fd5b90503d1561039757506001845114601f3d11165b5f610343565b3b1515610391565b60046040517fb06ebf3d000000000000000000000000000000000000000000000000000000008152fd5b604447604051907fcf4791810000000000000000000000000000000000000000000000000000000082526004820152346024820152fd5b60046040517ff4840e96000000000000000000000000000000000000000000000000000000008152fd5b60046040517f34f5151d000000000000000000000000000000000000000000000000000000008152fd5b6104619060a43590611ac8565b6101b0565b5080fd5b503461014b5761048a61047c36611a0f565b955093505095935050611b93565b629896809260c0830135918401908185116105445760a0916104ab91611ab5565b920135838102938185041490151715610517576104c9838383611c5a565b9383156104ea5760206104e28686868609151590611ac8565b604051908152f35b807f4e487b7100000000000000000000000000000000000000000000000000000000602492526012600452fd5b6024847f4e487b710000000000000000000000000000000000000000000000000000000081526011600452fd5b6024867f4e487b710000000000000000000000000000000000000000000000000000000081526011600452fd5b503461014b5761010090817ffffffffffffffffffffffffffffffffffffffffffffffffffffffffffffffffc36011261014b57602061012d8360405181600482372030907f000000000000000000000000000000000000000000000000000000000000000090611f11565b503461014b57807ffffffffffffffffffffffffffffffffffffffffffffffffffffffffffffffffc36011261014b57602060405173ffffffffffffffffffffffffffffffffffffffff7f0000000000000000000000000000000000000000000000000000000000000000168152f35b503461014b5761065a36611962565b50975050505050919073ffffffffffffffffffffffffffffffffffffffff7f0000000000000000000000000000000000000000000000000000000000000000163303610933576106a991611e92565b91907fffffffffffffffffffffffffffffffffffffffffffffffffffffffffffffff607dffffffffffffffffffffffffffffffffffffffffffffffffffffffffffff93849201013516604051916020926107678161073b85878301958690603e927fffffffffffffffffffffffffffffffffffffffffffffffffffffffffffff000091835260101b1660208201520190565b037fffffffffffffffffffffffffffffffffffffffffffffffffffffffffffffffe08101835282611b1b565b5190209084357fffffffffffffffffffffffffffffffffffffffffffffffffffffffffffffffe18636030181121561092f5767ffffffffffffffff94908601803586811161092b576005918160051b360387820113610927576040878a013599013597604051888101917fffffffffffffffff0000000000000000000000000000000000000000000000008c60c01b1683528a6028830152602882526060820190828210908211176108fa57604052519020928a9291905b8284106108bf575050505016036108955760018401809411610868576001929183916040519561084e87611ae2565b865281860193845286525260408420925183555191015580f35b6024857f4e487b710000000000000000000000000000000000000000000000000000000081526011600452fd5b60046040517f09bde339000000000000000000000000000000000000000000000000000000008152fd5b909192938885831b84010135908181105f146108ea578c528852600160408c205b940192919061081f565b908c528852600160408c206108e0565b7f4e487b71000000000000000000000000000000000000000000000000000000005f52604160045260245ffd5b8980fd5b8880fd5b8680fd5b60046040517f4ca88867000000000000000000000000000000000000000000000000000000008152fd5b503461014b5760207ffffffffffffffffffffffffffffffffffffffffffffffffffffffffffffffffc36011261014b576040809160043581526001602052206001815491015482519182526020820152f35b503461014b5760407ffffffffffffffffffffffffffffffffffffffffffffffffffffffffffffffffc36011261014b576109e761193f565b73ffffffffffffffffffffffffffffffffffffffff91827f0000000000000000000000000000000000000000000000000000000000000000163303610a4b5760209260409216815280835220610a406024358254611ad5565b809155604051908152f35b60046040517fa4544199000000000000000000000000000000000000000000000000000000008152fd5b503461014b57807ffffffffffffffffffffffffffffffffffffffffffffffffffffffffffffffffc36011261014b57602060405173ffffffffffffffffffffffffffffffffffffffff7f0000000000000000000000000000000000000000000000000000000000000000168152f35b503461014b5760207ffffffffffffffffffffffffffffffffffffffffffffffffffffffffffffffffc36011261014b57604060209173ffffffffffffffffffffffffffffffffffffffff610b3661193f565b1681528083522054604051908152f35b50346114a657610b5536611962565b949192939790959673ffffffffffffffffffffffffffffffffffffffff7f000000000000000000000000000000000000000000000000000000000000000016330361171757857fffffffffffffffffffffffffffffffffffffffffffffffffffffffffffffff608101116114aa577fffffffffffffffffffffffffffffffffffffffffffffffffffffffffffffff60860190877fffffffffffffffffffffffffffffffffffffffffffffffffffffffffffffff5f880183106114aa577f010000000000000000000000000000000000000000000000000000000000000080610c827fffffffffffffffffffffffffffffffffffffffffffffffffffffffffffffff5f8b017fffffffffffffffffffffffffffffffffffffffffffffffffffffffffffffff608c018d611f47565b351614610cd47fffffffffffffffffffffffffffffffffffffffffffffffffffffffffffffff5f8a017fffffffffffffffffffffffffffffffffffffffffffffffffffffffffffffff608b018c611f47565b3560fb1c90805f91611682575b856004116114a657833560e01c7ffffffffffffffffffffffffffffffffffffffffffffffffffffffffffffffffc8701600c8502116114a657610d2d8985600c81026004890185611f80565b156114f4575b50505060147ffffffffffffffffffffffffffffffffffffffffffffffffffffffffffffffffc600c83028603011161123e575b505050508585017fffffffffffffffffffffffffffffffffffffffffffffffffffffffffffffff6001905060e08901357f4000000000000000000000000000000000000000000000000000000000000000161561122157358060f01c600281106111f757610e6d91604051610e348161073b7dffffffffffffffffffffffffffffffffffffffffffffffffffffffffffff6020830195168d8690603e927fffffffffffffffffffffffffffffffffffffffffffffffffffffffffffff000091835260101b1660208201520190565b5190208b52600160205260408b20906020604051610e5181611ae2565b6001845494858352015491829101529460a08c0135908b611ddc565b156111cd5773ffffffffffffffffffffffffffffffffffffffff915b60405196610e9688611afe565b8752602087015260208801356040870152166060850152606086013560808501528460a08501527fffffffffffffffffffffffffffffffffffffffffffffffffffffffffffffffc0828401013560801c60c08501524260e01b7bffffffffffffffffffffffffffffffffffffffffffffffffffffffff7fffffffffffffffffffffffffffffffffffffffffffffffffffffffffffffffe08486010135161760e0850152604086013573ffffffffffffffffffffffffffffffffffffffff8116155f146111c757506020860135905b604051938460a081011067ffffffffffffffff60a0870111176108fa577f0e534c62f0afd2fa0f0fa71198e8aa2d549f24daf2bb47de0d5486c7ce9288ca936101a09360a08701604052865260208601928352604086017fffffffffffffffffffffffffffffffffffffffffffffffffffffffffffffffa0828401013581527fffffffffffffffffffffffffffffffffffffffffffffffffffffffffffffff8060608801926fffffffffffffffffffffffffffffffff7fffffffffffffffffffffffffffffffffffffffffffffffffffffffffffffffc082870101351684526080890194010135835260405193885185526020890151602086015260408901516040860152606089015160608601526080890151608086015260a089015160a086015260c089015160c086015260e089015160e086015261010097518886015251610120850152516101408401525161016083015251610180820152a18120763d602d80600a3d3981f3363d3d373d3d3d363d730000007f00000000000000000000000000000000000000000000000000000000000000006e5af43d82803e903d91602b57fd5bf36020528060115260881c175f52603760095ff59273ffffffffffffffffffffffffffffffffffffffff84161561039f57849160c0853191015111938415611159575b5050505061042a5780f35b602093945073ffffffffffffffffffffffffffffffffffffffff606060249385937f70a082310000000000000000000000000000000000000000000000000000000085526004520135165afa8251901560203d10176111bc57105f82818061114e565b6040513d84823e3d90fd5b90610f64565b60046040517feab3a174000000000000000000000000000000000000000000000000000000008152fd5b60046040517f10d629d3000000000000000000000000000000000000000000000000000000008152fd5b73ffffffffffffffffffffffffffffffffffffffff925035610e89565b6004600c820283010135937fffffffffffffffffffffffffffffffffffffffff0000000000000000000000008086169560147ffffffffffffffffffffffffffffffffffffffffffffffffffffffffffffffffc600c8602850301106114d7575b5050600c820281037ffffffffffffffffffffffffffffffffffffffffffffffffffffffffffffffffc81017ffffffffffffffffffffffffffffffffffffffffffffffffffffffffffffffffb909101116114aa577ffffffffffffffffffffffffffffffffffffffffffffffffffffffffffffffffb600c83028203016014116114a6578460601c3b156114a6578d928c918e60405198899788977f462ebde2000000000000000000000000000000000000000000000000000000008952803560048a0152602081013560248a0152604081013560448a0152606081013560648a0152608081013560848a015260a081013560a48a015260c081013560c48a015260e0013560e489015261010488016101e090526101e48801906113c092612022565b9361012487015273ffffffffffffffffffffffffffffffffffffffff8a166101448701526101648601528a610184860152896101a48601528483037ffffffffffffffffffffffffffffffffffffffffffffffffffffffffffffffffc016101c4860152600c840290037fffffffffffffffffffffffffffffffffffffffffffffffffffffffffffffffe70192600c02016018019161145d92612022565b039160601c91815a5f948591f1801561149b5761147e575b80808080610d66565b90985067ffffffffffffffff81116108fa576040525f975f611475565b6040513d5f823e3d90fd5b5f80fd5b7f4e487b71000000000000000000000000000000000000000000000000000000005f52601160045260245ffd5b600c8402830360140360040160031b82901b161694505f8061129e565b421080156115b9575b61158f5761150d575b8080610d33565b80156115065773ffffffffffffffffffffffffffffffffffffffff87165f525f60205260405f20548181106115655773ffffffffffffffffffffffffffffffffffffffff88165f525f6020520360405f20555f611506565b60046040517fa7fd3792000000000000000000000000000000000000000000000000000000008152fd5b60046040517ff25114a6000000000000000000000000000000000000000000000000000000008152fd5b506040517f70a0823100000000000000000000000000000000000000000000000000000000815273ffffffffffffffffffffffffffffffffffffffff8916600482015260208160248173ffffffffffffffffffffffffffffffffffffffff7f0000000000000000000000000000000000000000000000000000000000000000165afa90811561149b575f91611650575b50156114fd565b90506020813d60201161167a575b8161166b60209383611b1b565b810103126114a657515f611649565b3d915061165e565b94505090507fffffffffffffffffffffffffffffffffffffffffffffffffffffffffffffff6088016004116114a657883560e01c66038d7ea4c680009080828102048214811517156114aa576116e38d8f9360a06116e89501359302611ab5565b611b5c565b9060048a01917fffffffffffffffffffffffffffffffffffffffffffffffffffffffffffffff5c8a0194610ce1565b60046040517fd25aa106000000000000000000000000000000000000000000000000000000008152fd5b346114a65760407ffffffffffffffffffffffffffffffffffffffffffffffffffffffffffffffffc3601126114a65761177861193f565b73ffffffffffffffffffffffffffffffffffffffff90817f0000000000000000000000000000000000000000000000000000000000000000163303610a4b57165f525f602052602060405f20602435815401809155604051908152f35b346114a6575f7ffffffffffffffffffffffffffffffffffffffffffffffffffffffffffffffffc3601126114a657602060405173ffffffffffffffffffffffffffffffffffffffff7f0000000000000000000000000000000000000000000000000000000000000000168152f35b346114a65761185461047c36611a0f565b906298968091828402938085048414901517156114aa5782018092116114aa5760209260a061188a6104e29460c0850135611ab5565b920135611c5a565b346114a6576118a036611962565b5050505050505050505073ffffffffffffffffffffffffffffffffffffffff7f00000000000000000000000000000000000000000000000000000000000000001633036118e957005b807fd25aa1060000000000000000000000000000000000000000000000000000000060049252fd5b9181601f840112156114a65782359167ffffffffffffffff83116114a657602083818601950101116114a657565b6004359073ffffffffffffffffffffffffffffffffffffffff821682036114a657565b7ffffffffffffffffffffffffffffffffffffffffffffffffffffffffffffffffc81016101e081126114a657610100136114a65760049167ffffffffffffffff610104358181116114a657836119ba91600401611911565b9390939261012435926101443573ffffffffffffffffffffffffffffffffffffffff811681036114a65792610164359261018435926101a435926101c4359182116114a657611a0b91600401611911565b9091565b907ffffffffffffffffffffffffffffffffffffffffffffffffffffffffffffffffc82016101c081126114a657610100136114a65760049167ffffffffffffffff90610104358281116114a65781611a6991600401611911565b9390939261012435926101443573ffffffffffffffffffffffffffffffffffffffff811681036114a65792610164359261018435926101a4359182116114a657611a0b91600401611911565b818102929181159184041417156114aa57565b919082018092116114aa57565b919082039182116114aa57565b6040810190811067ffffffffffffffff8211176108fa57604052565b610100810190811067ffffffffffffffff8211176108fa57604052565b90601f7fffffffffffffffffffffffffffffffffffffffffffffffffffffffffffffffe0910116810190811067ffffffffffffffff8211176108fa57604052565b8115611b66570490565b7f4e487b71000000000000000000000000000000000000000000000000000000005f52601260045260245ffd5b90806003116114a657813560e81c816007116114a657600383013560e01c9080158015611c52575b15611c3b5750505f915b81600b116114a657600781013560e01c82600e116114a657826011116114a6577fffffffffffffffffffffffffffffffffffffffffffffffffffffffffffffffef611c299301916011810191600b600e83013560e81c92013560e81c810190611d1b565b81811115611c35570390565b50505f90565b620f424091611c4b914802611b5c565b0491611bc5565b508115611bbb565b91818302917fffffffffffffffffffffffffffffffffffffffffffffffffffffffffffffffff81850993838086109503948086039514611d0b5784831115611cec5790829109815f038216809204600280826003021880830282030280830282030280830282030280830282030280830282030280920290030293600183805f03040190848311900302920304170290565b82611d045760125b634e487b715f526020526024601cfd5b6011611cf4565b505090611d189250611b5c565b90565b90919392814211155f14611d30575050505090565b8293949192421015611dd357849291925b611d575750611d18935082039142900302611b5c565b906003908582116114a657823560e81c906005928784116114a65784013560f01c81019485421115611db4575050907ffffffffffffffffffffffffffffffffffffffffffffffffffffffffffffffffb9193920194019384611d41565b925093611d189650809550849193500393429003029142030201611b5c565b50505050505f90565b929190611df284611ded8385611ad5565b611ac8565b907fffffffffffffffffffffffffffffffffffffffffffffffffffffffffffffffff918281019081116114aa57836116e386611e2d93611ab5565b948103611e475750505050600281018091116114aa571490565b808303611e62575b50505050600181018091116114aa571490565b611e6c9083611ad5565b9081019081116114aa57611e83926116e391611ab5565b8114611c35575f808080611e4f565b91909160208310611f09578035907fffffffffffffffffffffffffffffffffffffffffffffffffffffffffffffffe063ffffffff8360c01c169260e01c94018411611ee1578101602001920390565b7f9605a010000000000000000000000000000000000000000000000000000000005f5260045ffd5b505f91508190565b60559173ffffffffffffffffffffffffffffffffffffffff93600b92604051926040840152602083015281520160ff8153201690565b90821015611f53570190565b7f4e487b71000000000000000000000000000000000000000000000000000000005f52603260045260245ffd5b9192909369ffffffffffffffffffff16925f925b828410611fa5575050505050505f90565b600a908282116114a657600c918383116114a65787013560f01c0195803560b01c8603611fd85750505050505042101590565b95929394954284116120175701949360010192917ffffffffffffffffffffffffffffffffffffffffffffffffffffffffffffffff49190910190611f94565b505050505050505f90565b601f82602094937fffffffffffffffffffffffffffffffffffffffffffffffffffffffffffffffe093818652868601375f858286010152011601019056fea264697066735822122080d8dac25d604280278e52bb35fe03c2b2fedeab0dc340a8f4726515e803b86e64736f6c634300081700336101003461010f57601f610bb938819003918201601f19168301916001600160401b0383118484101761011357808492604094855283398101031261010f5780519063ffffffff821680920361010f5760200151906001600160a01b038216820361010f573360c05260a0526080526e5af43d82803e903d91602b57fd5bf360205230601152763d602d80600a3d3981f3363d3d373d3d3d363d730000003060881c175f52603760092060e052604051610a9190816101288239608051816105d9015260a05181818160a30152610358015260c05181818161015b01528181610322015281816104d20152610798015260e051818181610131015281816102f801528181610465015261076e0152f35b5f80fd5b634e487b7160e01b5f52604160045260245ffdfe6080604090808252600480361015610015575f80fd5b60e05f35811c9283630af97558146105825750826323305703146104f65782632dd310001461048857826334862b6a146104305782634649088b146102555750816390d3252f146100ca575063f56cd69c1461006f575f80fd5b346100c6575f7ffffffffffffffffffffffffffffffffffffffffffffffffffffffffffffffffc3601126100c657602090517f00000000000000000000000000000000000000000000000000000000000000008152f35b5f80fd5b82346100c657610100807ffffffffffffffffffffffffffffffffffffffffffffffffffffffffffffffffc3601126100c65773ffffffffffffffffffffffffffffffffffffffff9182606435169182330361022d576055600b8592845181898237208451907f00000000000000000000000000000000000000000000000000000000000000008683015260208201527f000000000000000000000000000000000000000000000000000000000000000081520160ff8153201630036102055761019460e4356108c0565b42106101dd576101ab60a435836084358616610907565b6101b760c435336109c7565b7f6e3be9294e58d10b9c8053cfd5e09871b67e442fe394d6b0870d336b9df984a95f80a1005b8390517f6f7eac26000000000000000000000000000000000000000000000000000000008152fd5b8390517fa269484a000000000000000000000000000000000000000000000000000000008152fd5b8482517f48f5c3ed000000000000000000000000000000000000000000000000000000008152fd5b8390346100c6576101407ffffffffffffffffffffffffffffffffffffffffffffffffffffffffffffffffc3601126100c65782359273ffffffffffffffffffffffffffffffffffffffff90818516928386036100c65760243592610100807fffffffffffffffffffffffffffffffffffffffffffffffffffffffffffffffbc3601126100c6578160a43516330361040857600b60559188518160448237208851907f00000000000000000000000000000000000000000000000000000000000000008a83015260208201527f000000000000000000000000000000000000000000000000000000000000000081520160ff8153201630036103e05761012435901c7f00000000000000000000000000000000000000000000000000000000000000000142106103b957506103ac817fc4474c2790e13695f6d2b6f1d8e164290b55370f87a542fd7711abe0a1bf40ac953390610907565b82519182526020820152a1005b83517f6f7eac26000000000000000000000000000000000000000000000000000000008152fd5b5083517fa269484a000000000000000000000000000000000000000000000000000000008152fd5b8387517f48f5c3ed000000000000000000000000000000000000000000000000000000008152fd5b83346100c6575f7ffffffffffffffffffffffffffffffffffffffffffffffffffffffffffffffffc3601126100c657602090517f00000000000000000000000000000000000000000000000000000000000000008152f35b83346100c6575f7ffffffffffffffffffffffffffffffffffffffffffffffffffffffffffffffffc3601126100c6576020905173ffffffffffffffffffffffffffffffffffffffff7f0000000000000000000000000000000000000000000000000000000000000000168152f35b8390346100c65761050636610675565b92909173ffffffffffffffffffffffffffffffffffffffff606085013516330361022d5763ffffffff8185013580921c9160801c1681018091116105565742106101dd576105548383610742565b005b6011857f4e487b71000000000000000000000000000000000000000000000000000000005f525260245ffd5b84346100c65761059136610675565b9390927f70a08231000000000000000000000000000000000000000000000000000000008152338682015260208160248173ffffffffffffffffffffffffffffffffffffffff7f0000000000000000000000000000000000000000000000000000000000000000165afa90811561066b575f91610639575b501561022d5763ffffffff8185013580921c9160a01c1681018091116105565742106101dd576105548383610742565b90506020813d602011610663575b81610654602093836106d4565b810103126100c6575186610609565b3d9150610647565b83513d5f823e3d90fd5b906101207ffffffffffffffffffffffffffffffffffffffffffffffffffffffffffffffffc8301126100c6576101007fffffffffffffffffffffffffffffffffffffffffffffffffffffffffffffffdc6004359301126100c657602490565b90601f7fffffffffffffffffffffffffffffffffffffffffffffffffffffffffffffffe0910116810190811067ffffffffffffffff82111761071557604052565b7f4e487b71000000000000000000000000000000000000000000000000000000005f52604160045260245ffd5b9061075060e08201356108c0565b421015610896576040906055600b83516101009081858237208451907f00000000000000000000000000000000000000000000000000000000000000008683015260208201527f000000000000000000000000000000000000000000000000000000000000000081520160ff81532073ffffffffffffffffffffffffffffffffffffffff908116300361086d57835f5260205f20602083013503610844579161083d60c08361083560209660a07fe346f5c97a360db5188bfa5d3ec5f0583abde420c6ba4d08b6cfe61addc17105999701359080878501351690608085013516610907565b0135336109c7565b51908152a1565b600483517fabab6bd7000000000000000000000000000000000000000000000000000000008152fd5b600483517fa269484a000000000000000000000000000000000000000000000000000000008152fd5b60046040517f6f7eac26000000000000000000000000000000000000000000000000000000008152fd5b63ffffffff8160e01c9160c01c1681018091116108da5790565b7f4e487b71000000000000000000000000000000000000000000000000000000005f52601160045260245ffd5b73ffffffffffffffffffffffffffffffffffffffff169190826109305761092e92506109c7565b565b60445f91602093604051917fa9059cbb0000000000000000000000000000000000000000000000000000000083526004830152602482015282855af190816109a5575b501561097b57565b60046040517ffb7f5079000000000000000000000000000000000000000000000000000000008152fd5b90503d156109bf575060015f5114601f3d11165b5f610973565b3b15156109b9565b5f80809381935af13d15610a56573d67ffffffffffffffff81116107155760405190610a1b60207fffffffffffffffffffffffffffffffffffffffffffffffffffffffffffffffe0601f84011601836106d4565b81525f60203d92013e5b15610a2c57565b60046040517f8a0332d5000000000000000000000000000000000000000000000000000000008152fd5b610a2556fea2646970667358221220bc63862682d3b2452efd871ba9f67ede67cf8f8ef151f906d54368015a3f9a0a64736f6c634300081700336101003461011657601f610fa338819003918201601f19168301916001600160401b0383118484101761011a5780849260409485528339810103126101165780519063ffffffff82168092036101165760200151906001600160a01b0382168203610116573360c05260a0526080526e5af43d82803e903d91602b57fd5bf360205230601152763d602d80600a3d3981f3363d3d373d3d3d363d730000003060881c175f52603760092060e052604051610e74908161012f823960805181818161015a0152610866015260a05181818160b9015261059c015260c05181818161070401528181610bab01528181610c5c0152610ce2015260e05181818161069701528181610b8001528181610c310152610cb70152f35b5f80fd5b634e487b7160e01b5f52604160045260245ffdfe6080604090808252600480361015610015575f80fd5b60e05f35811c9283630af975581461080a5750826323305703146107285782632dd31000146106ba57826334862b6a146106625782634649088b146104fe5782636c10c0c81461035057826390d3252f146102b8578263daff233e146100e057505063f56cd69c14610085575f80fd5b346100dc575f7ffffffffffffffffffffffffffffffffffffffffffffffffffffffffffffffffc3601126100dc57602090517f00000000000000000000000000000000000000000000000000000000000000008152f35b5f80fd5b83346100dc576101007ffffffffffffffffffffffffffffffffffffffffffffffffffffffffffffffffc3601126100dc5773ffffffffffffffffffffffffffffffffffffffff9181517f70a082310000000000000000000000000000000000000000000000000000000081523385820152602081602481877f0000000000000000000000000000000000000000000000000000000000000000165afa9081156102ae575f9161027c575b50156102545763ffffffff60e43580921c9160601c168101809111610228574210610200576101ce826101bb610c05565b60a4359080604435169060843516610d12565b6101da60c43533610daa565b7f6e3be9294e58d10b9c8053cfd5e09871b67e442fe394d6b0870d336b9df984a95f80a1005b9050517f6f7eac26000000000000000000000000000000000000000000000000000000008152fd5b6011847f4e487b71000000000000000000000000000000000000000000000000000000005f525260245ffd5b8382517f48f5c3ed000000000000000000000000000000000000000000000000000000008152fd5b90506020813d6020116102a6575b8161029760209383610a88565b810103126100dc57518561018a565b3d915061028a565b83513d5f823e3d90fd5b5082346100dc576101007ffffffffffffffffffffffffffffffffffffffffffffffffffffffffffffffffc3601126100dc5773ffffffffffffffffffffffffffffffffffffffff90816064351633036103285761031660e435610af6565b4210610200576101ce826101bb610c05565b9050517f48f5c3ed000000000000000000000000000000000000000000000000000000008152fd5b5082346100dc576101407ffffffffffffffffffffffffffffffffffffffffffffffffffffffffffffffffc3601126100dc5781359160243573ffffffffffffffffffffffffffffffffffffffff9182821682036100dc576101007fffffffffffffffffffffffffffffffffffffffffffffffffffffffffffffffbc3601126100dc578260a4351633036104d757610124356103ea81610b3d565b42106104af576103f990610af6565b42101561048857610408610b54565b845f5260205f2060643503610461577fe346f5c97a360db5188bfa5d3ec5f0583abde420c6ba4d08b6cfe61addc171056020868661044d60e4358760c4358a16610d12565b61045a6101043533610daa565b51908152a1005b83517fabab6bd7000000000000000000000000000000000000000000000000000000008152fd5b83517f6f7eac26000000000000000000000000000000000000000000000000000000008152fd5b5083517f6f7eac26000000000000000000000000000000000000000000000000000000008152fd5b83517f48f5c3ed000000000000000000000000000000000000000000000000000000008152fd5b8390346100dc576101407ffffffffffffffffffffffffffffffffffffffffffffffffffffffffffffffffc3601126100dc5782359073ffffffffffffffffffffffffffffffffffffffff908183168093036100dc57602435916101007fffffffffffffffffffffffffffffffffffffffffffffffffffffffffffffffbc3601126100dc5760a43516330361063957610594610b54565b61012435901c7f0000000000000000000000000000000000000000000000000000000000000000014210610611577fc4474c2790e13695f6d2b6f1d8e164290b55370f87a542fd7711abe0a1bf40ac935081610601576105f48133610daa565b82519182526020820152a1005b61060c813384610d12565b6105f4565b5050517f6f7eac26000000000000000000000000000000000000000000000000000000008152fd5b505050517f48f5c3ed000000000000000000000000000000000000000000000000000000008152fd5b83346100dc575f7ffffffffffffffffffffffffffffffffffffffffffffffffffffffffffffffffc3601126100dc57602090517f00000000000000000000000000000000000000000000000000000000000000008152f35b83346100dc575f7ffffffffffffffffffffffffffffffffffffffffffffffffffffffffffffffffc3601126100dc576020905173ffffffffffffffffffffffffffffffffffffffff7f0000000000000000000000000000000000000000000000000000000000000000168152f35b8390346100dc5761073836610a29565b91909373ffffffffffffffffffffffffffffffffffffffff918260608501351633036107e25783013561076a81610b3d565b42106104af5761077990610af6565b4210156104885761078983610c8c565b845f5260205f20602084013503610461577fe346f5c97a360db5188bfa5d3ec5f0583abde420c6ba4d08b6cfe61addc171056020868661045a60c0886107da60a08201353360808401358c16610d12565b013533610daa565b5083517f48f5c3ed000000000000000000000000000000000000000000000000000000008152fd5b8285346100dc5761081a36610a29565b94909273ffffffffffffffffffffffffffffffffffffffff917f70a0823100000000000000000000000000000000000000000000000000000000865233828701526020958681602481877f0000000000000000000000000000000000000000000000000000000000000000165afa908115610a1f575f916109f2575b50156109ca578087013580911c63ffffffff82881c16810180911161099e574210610976576108c490610af6565b42101561094f576108d486610c8c565b835f52845f208587013503610928575060c0856107da61045a9360a07fe346f5c97a360db5188bfa5d3ec5f0583abde420c6ba4d08b6cfe61addc17105990135908060608501351690608085013516610d12565b82517fabab6bd7000000000000000000000000000000000000000000000000000000008152fd5b82517f6f7eac26000000000000000000000000000000000000000000000000000000008152fd5b5082517f6f7eac26000000000000000000000000000000000000000000000000000000008152fd5b6011837f4e487b71000000000000000000000000000000000000000000000000000000005f525260245ffd5b5082517f48f5c3ed000000000000000000000000000000000000000000000000000000008152fd5b90508681813d8311610a18575b610a098183610a88565b810103126100dc575188610896565b503d6109ff565b85513d5f823e3d90fd5b906101207ffffffffffffffffffffffffffffffffffffffffffffffffffffffffffffffffc8301126100dc576101007fffffffffffffffffffffffffffffffffffffffffffffffffffffffffffffffdc6004359301126100dc57602490565b90601f7fffffffffffffffffffffffffffffffffffffffffffffffffffffffffffffffe0910116810190811067ffffffffffffffff821117610ac957604052565b7f4e487b71000000000000000000000000000000000000000000000000000000005f52604160045260245ffd5b63ffffffff8160e01c9160401c168101809111610b105790565b7f4e487b71000000000000000000000000000000000000000000000000000000005f52601160045260245ffd5b63ffffffff8160e01c91168101809111610b105790565b73ffffffffffffffffffffffffffffffffffffffff6055600b60405161010090816044823720604051907f0000000000000000000000000000000000000000000000000000000000000000604083015260208201527f000000000000000000000000000000000000000000000000000000000000000081520160ff815320163003610bdb57565b60046040517fa269484a000000000000000000000000000000000000000000000000000000008152fd5b73ffffffffffffffffffffffffffffffffffffffff6055600b60405161010090816004823720604051907f0000000000000000000000000000000000000000000000000000000000000000604083015260208201527f000000000000000000000000000000000000000000000000000000000000000081520160ff815320163003610bdb57565b6055600b73ffffffffffffffffffffffffffffffffffffffff926040516101008092823720604051907f0000000000000000000000000000000000000000000000000000000000000000604083015260208201527f000000000000000000000000000000000000000000000000000000000000000081520160ff815320163003610bdb57565b9160446020925f92604051917fa9059cbb0000000000000000000000000000000000000000000000000000000083526004830152602482015282855af19081610d88575b5015610d5e57565b60046040517ffb7f5079000000000000000000000000000000000000000000000000000000008152fd5b90503d15610da2575060015f5114601f3d11165b5f610d56565b3b1515610d9c565b5f80809381935af13d15610e39573d67ffffffffffffffff8111610ac95760405190610dfe60207fffffffffffffffffffffffffffffffffffffffffffffffffffffffffffffffe0601f8401160183610a88565b81525f60203d92013e5b15610e0f57565b60046040517f8a0332d5000000000000000000000000000000000000000000000000000000008152fd5b610e0856fea2646970667358221220da6b383a4d236123e19e49c30d9eea70eaa62e4b1610dbd1877f95acfb9b178764736f6c6343000817003360c03461013057601f61121f38819003918201601f19168301916001600160401b03831184841017610134578084926060946040528339810103126101305780516001600160a01b03808216820361013057602083015192818416908185036101305760400151828116809103610130578015610118575f80546001600160a01b03198116831782556040519416907f8be0079c531659141344cd1fd0a4f28419497f9722a3daafe3b4186f6b6457e09080a315610109575060a0526080526040516110d6908161014982396080518181816102eb015281816108d401528181610d8f0152610e0e015260a0518181816102b8015281816106d701528181610d310152610ee40152f35b63d92e233d60e01b8152600490fd5b604051631e4fbdf760e01b81525f6004820152602490fd5b5f80fd5b634e487b7160e01b5f52604160045260245ffdfe604060808152600480361015610013575f80fd5b5f3560e01c8063205c2878146108345780632e1a7d4d146107f65780632f4f21e2146107b057806332d323a5146107475780635886216f14610652578063715018a6146105b857806378e3214f146104295780638da5cb5b146103d857806397a2cb6414610225578063b6b55f25146101e7578063bfe91734146101835763f2fde38b1461009f575f80fd5b3461017f5760207ffffffffffffffffffffffffffffffffffffffffffffffffffffffffffffffffc36011261017f576100d661087a565b906100df610fb8565b73ffffffffffffffffffffffffffffffffffffffff8092169283156101505750505f54827fffffffffffffffffffffffff00000000000000000000000000000000000000008216175f55167f8be0079c531659141344cd1fd0a4f28419497f9722a3daafe3b4186f6b6457e05f80a3005b905f60249251917f1e4fbdf7000000000000000000000000000000000000000000000000000000008352820152fd5b5f80fd5b50903461017f57807ffffffffffffffffffffffffffffffffffffffffffffffffffffffffffffffffc36011261017f5760243567ffffffffffffffff811161017f576020926101d86101e0923690830161089d565b9135336108cb565b9051908152f35b50903461017f5760207ffffffffffffffffffffffffffffffffffffffffffffffffffffffffffffffffc36011261017f576101e06020923533610de9565b503461017f57602091827ffffffffffffffffffffffffffffffffffffffffffffffffffffffffffffffffc36011261017f57813567ffffffffffffffff80821161017f573660238301121561017f578184013590811161017f5760059360243683871b850182011161017f57949061029b610fb8565b5f955f9473ffffffffffffffffffffffffffffffffffffffff90817f000000000000000000000000000000000000000000000000000000000000000016945b868810610315578a8a8a61030f82337f0000000000000000000000000000000000000000000000000000000000000000611008565b51908152f35b9091929394959698848a831b840101359084821680920361017f575f8281526001808e52908b9020548b517f5886216f000000000000000000000000000000000000000000000000000000008152808a0185905293918e858a818e5afa9283156103ce578f905f9461039e575b600196505f5252818c5f205503019901969594939291906102da565b935085813d83116103c7575b6103b48183610c84565b8101031261017f578e6001955193610382565b503d6103aa565b8d513d5f823e3d90fd5b823461017f575f7ffffffffffffffffffffffffffffffffffffffffffffffffffffffffffffffffc36011261017f5760209073ffffffffffffffffffffffffffffffffffffffff5f54169051908152f35b50903461017f57807ffffffffffffffffffffffffffffffffffffffffffffffffffffffffffffffffc36011261017f57813573ffffffffffffffffffffffffffffffffffffffff81169081810361017f5760243591610486610fb8565b8261048d57005b801590811561059a575b50156105895750804710610562575f8080809333611388f13d1561055d573d67ffffffffffffffff8111610531578251906104fa60207fffffffffffffffffffffffffffffffffffffffffffffffffffffffffffffffe0601f8401160183610c84565b81525f60203d92013e5b1561050b57005b517fb12d13eb000000000000000000000000000000000000000000000000000000008152fd5b6041847f4e487b71000000000000000000000000000000000000000000000000000000005f525260245ffd5b610504565b50517ff4d678b8000000000000000000000000000000000000000000000000000000008152fd5b90915061059892503390611008565b005b73eeeeeeeeeeeeeeeeeeeeeeeeeeeeeeeeeeeeeeee9150145f610497565b3461017f575f7ffffffffffffffffffffffffffffffffffffffffffffffffffffffffffffffffc36011261017f576105ee610fb8565b5f73ffffffffffffffffffffffffffffffffffffffff81547fffffffffffffffffffffffff000000000000000000000000000000000000000081168355167f8be0079c531659141344cd1fd0a4f28419497f9722a3daafe3b4186f6b6457e08280a3005b503461017f57602091827ffffffffffffffffffffffffffffffffffffffffffffffffffffffffffffffffc36011261017f578261068d61087a565b602473ffffffffffffffffffffffffffffffffffffffff9182855196879485937f5886216f00000000000000000000000000000000000000000000000000000000855216908301527f0000000000000000000000000000000000000000000000000000000000000000165afa91821561073d575f9261070e575b5051908152f35b9091508281813d8311610736575b6107268183610c84565b8101031261017f5751905f610707565b503d61071c565b50513d5f823e3d90fd5b50903461017f5760607ffffffffffffffffffffffffffffffffffffffffffffffffffffffffffffffffc36011261017f5761078061087a565b916044359267ffffffffffffffff841161017f576107a66101e09260209536910161089d565b91602435906108cb565b823461017f57807ffffffffffffffffffffffffffffffffffffffffffffffffffffffffffffffffc36011261017f576020906101e06107ed61087a565b60243590610de9565b50903461017f5760207ffffffffffffffffffffffffffffffffffffffffffffffffffffffffffffffffc36011261017f576101e06020923533610cf2565b823461017f57807ffffffffffffffffffffffffffffffffffffffffffffffffffffffffffffffffc36011261017f576020906101e061087161087a565b60243590610cf2565b6004359073ffffffffffffffffffffffffffffffffffffffff8216820361017f57565b9181601f8401121561017f5782359167ffffffffffffffff831161017f576020838186019501011161017f57565b925f91929082917f000000000000000000000000000000000000000000000000000000000000000091604051918180606414610bce5780604814610b0c578060e014610ad3578061010014610a9857806060146109c25761016014610978578185926004927f9fd5a6cf0000000000000000000000000000000000000000000000000000000086528386013701925af15b1561096d5761096a91610de9565b90565b6040513d5f823e3d90fd5b610164935061016091507f2b67b5700000000000000000000000000000000000000000000000000000000083526004830137826e22d473030f116ddee9f6b43ac78ba35af161095c565b5060209150604090610164947f2b67b570000000000000000000000000000000000000000000000000000000008552336004860152602485015260148160508601377fffffffffffffffffffffffffffffffffffffffffffffffffffffffffffffffff65ffffffffffff9080601484013560e01c0182166064870152601883013560e01c60848701523060a4870152601c83013560e01c011660c485015261010060e4850152816101048501528280820161012486013701610144830137826e22d473030f116ddee9f6b43ac78ba35af161095c565b5084915092610100610104947f8fcbaf0c00000000000000000000000000000000000000000000000000000000855260048501375af161095c565b508491509260e060e4947fd505accf00000000000000000000000000000000000000000000000000000000855260048501375af161095c565b50849150927f7fffffffffffffffffffffffffffffffffffffffffffffffffffffffffffffff610104947f8fcbaf0c00000000000000000000000000000000000000000000000000000000855233600486015230602486015260206008602883013592803560e01c60448901527fffffffffffffffffffffffffffffffffffffffffffffffffffffffffffffffff600482013560e01c016064890152600160848901528360ff1c601b0160a48901520160c48701371660e48401525af161095c565b50849150927f7fffffffffffffffffffffffffffffffffffffffffffffffffffffffffffffff60e4947fd505accf00000000000000000000000000000000000000000000000000000000855233600486015230602486015260206024604483013592828160448a01377fffffffffffffffffffffffffffffffffffffffffffffffffffffffffffffffff8382013560e01c0160648901528360ff1c601b0160848901520160a48701371660c48401525af161095c565b90601f7fffffffffffffffffffffffffffffffffffffffffffffffffffffffffffffffe0910116810190811067ffffffffffffffff821117610cc557604052565b7f4e487b71000000000000000000000000000000000000000000000000000000005f52604160045260245ffd5b6040517f85eda2de000000000000000000000000000000000000000000000000000000008152336004820152602481018390529092916020826044815f7f000000000000000000000000000000000000000000000000000000000000000073ffffffffffffffffffffffffffffffffffffffff165af1801561096d575f90610db5575b610db3925093335f52600160205260405f208281540390557f0000000000000000000000000000000000000000000000000000000000000000611008565b565b506020823d602011610de1575b81610dcf60209383610c84565b8101031261017f57610db39151610d75565b3d9150610dc2565b73ffffffffffffffffffffffffffffffffffffffff91828216908115610f8e576064937f00000000000000000000000000000000000000000000000000000000000000006040517f23b872dd0000000000000000000000000000000000000000000000000000000081523360048201523060248201528360448201525f602097889282855af19081610f6c575b5015610f42575f928352600185526040808420805484019055517f3ee5ef1f00000000000000000000000000000000000000000000000000000000815273ffffffffffffffffffffffffffffffffffffffff94909416600485015260248401919091528391839160449183917f0000000000000000000000000000000000000000000000000000000000000000165af191821561096d575f92610f1857505090565b90809250813d8311610f3b575b610f2f8183610c84565b8101031261017f575190565b503d610f25565b60046040517ff4059071000000000000000000000000000000000000000000000000000000008152fd5b90503d15610f86575060015f5114601f3d11165b5f610e76565b3b1515610f80565b60046040517fd92e233d000000000000000000000000000000000000000000000000000000008152fd5b73ffffffffffffffffffffffffffffffffffffffff5f54163303610fd857565b60246040517f118cdaa7000000000000000000000000000000000000000000000000000000008152336004820152fd5b9160446020925f92604051917fa9059cbb0000000000000000000000000000000000000000000000000000000083526004830152602482015282855af1908161107e575b501561105457565b60046040517ffb7f5079000000000000000000000000000000000000000000000000000000008152fd5b90503d15611098575060015f5114601f3d11165b5f61104c565b3b151561109256fea2646970667358221220daeaafc591a374d885bfa2ca9d12c58ca8dc76f3008569822cf96c4211fb6eb564736f6c63430008170033","linkReferences":{}},"methodIdentifiers":{"ESCROW_DST_IMPLEMENTATION()":"ba551177","ESCROW_SRC_IMPLEMENTATION()":"7040f173","FEE_BANK()":"2ce26aeb","addressOfEscrowDst((bytes32,bytes32,uint256,uint256,uint256,uint256,uint256,uint256))":"be58e91c","addressOfEscrowSrc((bytes32,bytes32,uint256,uint256,uint256,uint256,uint256,uint256))":"fb6bd47e","availableCredit(address)":"5886216f","createDstEscrow((bytes32,bytes32,uint256,uint256,uint256,uint256,uint256,uint256),uint256)":"dea024e4","decreaseAvailableCredit(address,uint256)":"85eda2de","getMakingAmount((uint256,uint256,uint256,uint256,uint256,uint256,uint256,uint256),bytes,bytes32,address,uint256,uint256,bytes)":"1d9671c3","getTakingAmount((uint256,uint256,uint256,uint256,uint256,uint256,uint256,uint256),bytes,bytes32,address,uint256,uint256,bytes)":"d7ff8a80","increaseAvailableCredit(address,uint256)":"3ee5ef1f","lastValidated(bytes32)":"acf4ce5c","postInteraction((uint256,uint256,uint256,uint256,uint256,uint256,uint256,uint256),bytes,bytes32,address,uint256,uint256,uint256,bytes)":"462ebde2","preInteraction((uint256,uint256,uint256,uint256,uint256,uint256,uint256,uint256),bytes,bytes32,address,uint256,uint256,uint256,bytes)":"0986bdd5","takerInteraction((uint256,uint256,uint256,uint256,uint256,uint256,uint256,uint256),bytes,bytes32,address,uint256,uint256,uint256,bytes)":"adf38ba1"},"storageLayout":{"storage":[{"astId":3742,"contract":"contracts/src/TestEscrowFactory.sol:TestEscrowFactory","label":"_creditAllowance","offset":0,"slot":"0","type":"t_mapping(t_address,t_uint256)"},{"astId":1511,"contract":"contracts/src/TestEscrowFactory.sol:TestEscrowFactory","label":"lastValidated","offset":0,"slot":"1","type":"t_mapping(t_bytes32,t_struct(ValidationData)1912_storage)"}],"types":{"t_address":{"encoding":"inplace","label":"address","numberOfBytes":"20"},"t_bytes32":{"encoding":"inplace","label":"bytes32","numberOfBytes":"32"},"t_mapping(t_address,t_uint256)":{"encoding":"mapping","key":"t_address","label":"mapping(address => uint256)","numberOfBytes":"32","value":"t_uint256"},"t_mapping(t_bytes32,t_struct(ValidationData)1912_storage)":{"encoding":"mapping","key":"t_bytes32","label":"mapping(bytes32 => struct IMerkleStorageInvalidator.ValidationData)","numberOfBytes":"32","value":"t_struct(ValidationData)1912_storage"},"t_struct(ValidationData)1912_storage":{"encoding":"inplace","label":"struct IMerkleStorageInvalidator.ValidationData","numberOfBytes":"64","members":[{"astId":1909,"contract":"contracts/src/TestEscrowFactory.sol:TestEscrowFactory","label":"index","offset":0,"slot":"0","type":"t_uint256"},{"astId":1911,"contract":"contracts/src/TestEscrowFactory.sol:TestEscrowFactory","label":"leaf","offset":0,"slot":"1","type":"t_bytes32"}]},"t_uint256":{"encoding":"inplace","label":"uint256","numberOfBytes":"32"}}},"id":58}