{"abi":[{"type":"constructor","inputs":[{"name":"rescueDelay","type":"uint32","internalType":"uint32"},{"name":"accessToken","type":"address","internalType":"contract IERC20"}],"stateMutability":"nonpayable"},{"type":"function","name":"FACTORY","inputs":[],"outputs":[{"name":"","type":"address","internalType":"address"}],"stateMutability":"view"},{"type":"function","name":"PROXY_BYTECODE_HASH","inputs":[],"outputs":[{"name":"","type":"bytes32","internalType":"bytes32"}],"stateMutability":"view"},{"type":"function","name":"RESCUE_DELAY","inputs":[],"outputs":[{"name":"","type":"uint256","internalType":"uint256"}],"stateMutability":"view"},{"type":"function","name":"cancel","inputs":[{"name":"immutables","type":"tuple","internalType":"struct IBaseEscrow.Immutables","components":[{"name":"orderHash","type":"bytes32","internalType":"bytes32"},{"name":"hashlock","type":"bytes32","internalType":"bytes32"},{"name":"maker","type":"uint256","internalType":"Address"},{"name":"taker","type":"uint256","internalType":"Address"},{"name":"token","type":"uint256","internalType":"Address"},{"name":"amount","type":"uint256","internalType":"uint256"},{"name":"safetyDeposit","type":"uint256","internalType":"uint256"},{"name":"timelocks","type":"uint256","internalType":"Timelocks"}]}],"outputs":[],"stateMutability":"nonpayable"},{"type":"function","name":"publicCancel","inputs":[{"name":"immutables","type":"tuple","internalType":"struct IBaseEscrow.Immutables","components":[{"name":"orderHash","type":"bytes32","internalType":"bytes32"},{"name":"hashlock","type":"bytes32","internalType":"bytes32"},{"name":"maker","type":"uint256","internalType":"Address"},{"name":"taker","type":"uint256","internalType":"Address"},{"name":"token","type":"uint256","internalType":"Address"},{"name":"amount","type":"uint256","internalType":"uint256"},{"name":"safetyDeposit","type":"uint256","internalType":"uint256"},{"name":"timelocks","type":"uint256","internalType":"Timelocks"}]}],"outputs":[],"stateMutability":"nonpayable"},{"type":"function","name":"publicWithdraw","inputs":[{"name":"secret","type":"bytes32","internalType":"bytes32"},{"name":"immutables","type":"tuple","internalType":"struct IBaseEscrow.Immutables","components":[{"name":"orderHash","type":"bytes32","internalType":"bytes32"},{"name":"hashlock","type":"bytes32","internalType":"bytes32"},{"name":"maker","type":"uint256","internalType":"Address"},{"name":"taker","type":"uint256","internalType":"Address"},{"name":"token","type":"uint256","internalType":"Address"},{"name":"amount","type":"uint256","internalType":"uint256"},{"name":"safetyDeposit","type":"uint256","internalType":"uint256"},{"name":"timelocks","type":"uint256","internalType":"Timelocks"}]}],"outputs":[],"stateMutability":"nonpayable"},{"type":"function","name":"rescueFunds","inputs":[{"name":"token","type":"address","internalType":"address"},{"name":"amount","type":"uint256","internalType":"uint256"},{"name":"immutables","type":"tuple","internalType":"struct IBaseEscrow.Immutables","components":[{"name":"orderHash","type":"bytes32","internalType":"bytes32"},{"name":"hashlock","type":"bytes32","internalType":"bytes32"},{"name":"maker","type":"uint256","internalType":"Address"},{"name":"taker","type":"uint256","internalType":"Address"},{"name":"token","type":"uint256","internalType":"Address"},{"name":"amount","type":"uint256","internalType":"uint256"},{"name":"safetyDeposit","type":"uint256","internalType":"uint256"},{"name":"timelocks","type":"uint256","internalType":"Timelocks"}]}],"outputs":[],"stateMutability":"nonpayable"},{"type":"function","name":"withdraw","inputs":[{"name":"secret","type":"bytes32","internalType":"bytes32"},{"name":"immutables","type":"tuple","internalType":"struct IBaseEscrow.Immutables","components":[{"name":"orderHash","type":"bytes32","internalType":"bytes32"},{"name":"hashlock","type":"bytes32","internalType":"bytes32"},{"name":"maker","type":"uint256","internalType":"Address"},{"name":"taker","type":"uint256","internalType":"Address"},{"name":"token","type":"uint256","internalType":"Address"},{"name":"amount","type":"uint256","internalType":"uint256"},{"name":"safetyDeposit","type":"uint256","internalType":"uint256"},{"name":"timelocks","type":"uint256","internalType":"Timelocks"}]}],"outputs":[],"stateMutability":"nonpayable"},{"type":"function","name":"withdrawTo","inputs":[{"name":"secret","type":"bytes32","internalType":"bytes32"},{"name":"target","type":"address","internalType":"address"},{"name":"immutables","type":"tuple","internalType":"struct IBaseEscrow.Immutables","components":[{"name":"orderHash","type":"bytes32","internalType":"bytes32"},{"name":"hashlock","type":"bytes32","internalType":"bytes32"},{"name":"maker","type":"uint256","internalType":"Address"},{"name":"taker","type":"uint256","internalType":"Address"},{"name":"token","type":"uint256","internalType":"Address"},{"name":"amount","type":"uint256","internalType":"uint256"},{"name":"safetyDeposit","type":"uint256","internalType":"uint256"},{"name":"timelocks","type":"uint256","internalType":"Timelocks"}]}],"outputs":[],"stateMutability":"nonpayable"},{"type":"event","name":"EscrowCancelled","inputs":[],"anonymous":false},{"type":"event","name":"EscrowWithdrawal","inputs":[{"name":"secret","type":"bytes32","indexed":false,"internalType":"bytes32"}],"anonymous":false},{"type":"event","name":"FundsRescued","inputs":[{"name":"token","type":"address","indexed":false,"internalType":"address"},{"name":"amount","type":"uint256","indexed":false,"internalType":"uint256"}],"anonymous":false},{"type":"error","name":"InvalidCaller","inputs":[]},{"type":"error","name":"InvalidImmutables","inputs":[]},{"type":"error","name":"InvalidSecret","inputs":[]},{"type":"error","name":"InvalidTime","inputs":[]},{"type":"error","name":"NativeTokenSendingFailure","inputs":[]},{"type":"error","name":"SafeTransferFailed","inputs":[]}],"bytecode":{"object":"0x6101003461011657601f610fa338819003918201601f19168301916001600160401b0383118484101761011a5780849260409485528339810103126101165780519063ffffffff82168092036101165760200151906001600160a01b0382168203610116573360c05260a0526080526e5af43d82803e903d91602b57fd5bf360205230601152763d602d80600a3d3981f3363d3d373d3d3d363d730000003060881c175f52603760092060e052604051610e74908161012f823960805181818161015a0152610866015260a05181818160b9015261059c015260c05181818161070401528181610bab01528181610c5c0152610ce2015260e05181818161069701528181610b8001528181610c310152610cb70152f35b5f80fd5b634e487b7160e01b5f52604160045260245ffdfe6080604090808252600480361015610015575f80fd5b60e05f35811c9283630af975581461080a5750826323305703146107285782632dd31000146106ba57826334862b6a146106625782634649088b146104fe5782636c10c0c81461035057826390d3252f146102b8578263daff233e146100e057505063f56cd69c14610085575f80fd5b346100dc575f7ffffffffffffffffffffffffffffffffffffffffffffffffffffffffffffffffc3601126100dc57602090517f00000000000000000000000000000000000000000000000000000000000000008152f35b5f80fd5b83346100dc576101007ffffffffffffffffffffffffffffffffffffffffffffffffffffffffffffffffc3601126100dc5773ffffffffffffffffffffffffffffffffffffffff9181517f70a082310000000000000000000000000000000000000000000000000000000081523385820152602081602481877f0000000000000000000000000000000000000000000000000000000000000000165afa9081156102ae575f9161027c575b50156102545763ffffffff60e43580921c9160601c168101809111610228574210610200576101ce826101bb610c05565b60a4359080604435169060843516610d12565b6101da60c43533610daa565b7f6e3be9294e58d10b9c8053cfd5e09871b67e442fe394d6b0870d336b9df984a95f80a1005b9050517f6f7eac26000000000000000000000000000000000000000000000000000000008152fd5b6011847f4e487b71000000000000000000000000000000000000000000000000000000005f525260245ffd5b8382517f48f5c3ed000000000000000000000000000000000000000000000000000000008152fd5b90506020813d6020116102a6575b8161029760209383610a88565b810103126100dc57518561018a565b3d915061028a565b83513d5f823e3d90fd5b5082346100dc576101007ffffffffffffffffffffffffffffffffffffffffffffffffffffffffffffffffc3601126100dc5773ffffffffffffffffffffffffffffffffffffffff90816064351633036103285761031660e435610af6565b4210610200576101ce826101bb610c05565b9050517f48f5c3ed000000000000000000000000000000000000000000000000000000008152fd5b5082346100dc576101407ffffffffffffffffffffffffffffffffffffffffffffffffffffffffffffffffc3601126100dc5781359160243573ffffffffffffffffffffffffffffffffffffffff9182821682036100dc576101007fffffffffffffffffffffffffffffffffffffffffffffffffffffffffffffffbc3601126100dc578260a4351633036104d757610124356103ea81610b3d565b42106104af576103f990610af6565b42101561048857610408610b54565b845f5260205f2060643503610461577fe346f5c97a360db5188bfa5d3ec5f0583abde420c6ba4d08b6cfe61addc171056020868661044d60e4358760c4358a16610d12565b61045a6101043533610daa565b51908152a1005b83517fabab6bd7000000000000000000000000000000000000000000000000000000008152fd5b83517f6f7eac26000000000000000000000000000000000000000000000000000000008152fd5b5083517f6f7eac26000000000000000000000000000000000000000000000000000000008152fd5b83517f48f5c3ed000000000000000000000000000000000000000000000000000000008152fd5b8390346100dc576101407ffffffffffffffffffffffffffffffffffffffffffffffffffffffffffffffffc3601126100dc5782359073ffffffffffffffffffffffffffffffffffffffff908183168093036100dc57602435916101007fffffffffffffffffffffffffffffffffffffffffffffffffffffffffffffffbc3601126100dc5760a43516330361063957610594610b54565b61012435901c7f0000000000000000000000000000000000000000000000000000000000000000014210610611577fc4474c2790e13695f6d2b6f1d8e164290b55370f87a542fd7711abe0a1bf40ac935081610601576105f48133610daa565b82519182526020820152a1005b61060c813384610d12565b6105f4565b5050517f6f7eac26000000000000000000000000000000000000000000000000000000008152fd5b505050517f48f5c3ed000000000000000000000000000000000000000000000000000000008152fd5b83346100dc575f7ffffffffffffffffffffffffffffffffffffffffffffffffffffffffffffffffc3601126100dc57602090517f00000000000000000000000000000000000000000000000000000000000000008152f35b83346100dc575f7ffffffffffffffffffffffffffffffffffffffffffffffffffffffffffffffffc3601126100dc576020905173ffffffffffffffffffffffffffffffffffffffff7f0000000000000000000000000000000000000000000000000000000000000000168152f35b8390346100dc5761073836610a29565b91909373ffffffffffffffffffffffffffffffffffffffff918260608501351633036107e25783013561076a81610b3d565b42106104af5761077990610af6565b4210156104885761078983610c8c565b845f5260205f20602084013503610461577fe346f5c97a360db5188bfa5d3ec5f0583abde420c6ba4d08b6cfe61addc171056020868661045a60c0886107da60a08201353360808401358c16610d12565b013533610daa565b5083517f48f5c3ed000000000000000000000000000000000000000000000000000000008152fd5b8285346100dc5761081a36610a29565b94909273ffffffffffffffffffffffffffffffffffffffff917f70a0823100000000000000000000000000000000000000000000000000000000865233828701526020958681602481877f0000000000000000000000000000000000000000000000000000000000000000165afa908115610a1f575f916109f2575b50156109ca578087013580911c63ffffffff82881c16810180911161099e574210610976576108c490610af6565b42101561094f576108d486610c8c565b835f52845f208587013503610928575060c0856107da61045a9360a07fe346f5c97a360db5188bfa5d3ec5f0583abde420c6ba4d08b6cfe61addc17105990135908060608501351690608085013516610d12565b82517fabab6bd7000000000000000000000000000000000000000000000000000000008152fd5b82517f6f7eac26000000000000000000000000000000000000000000000000000000008152fd5b5082517f6f7eac26000000000000000000000000000000000000000000000000000000008152fd5b6011837f4e487b71000000000000000000000000000000000000000000000000000000005f525260245ffd5b5082517f48f5c3ed000000000000000000000000000000000000000000000000000000008152fd5b90508681813d8311610a18575b610a098183610a88565b810103126100dc575188610896565b503d6109ff565b85513d5f823e3d90fd5b906101207ffffffffffffffffffffffffffffffffffffffffffffffffffffffffffffffffc8301126100dc576101007fffffffffffffffffffffffffffffffffffffffffffffffffffffffffffffffdc6004359301126100dc57602490565b90601f7fffffffffffffffffffffffffffffffffffffffffffffffffffffffffffffffe0910116810190811067ffffffffffffffff821117610ac957604052565b7f4e487b71000000000000000000000000000000000000000000000000000000005f52604160045260245ffd5b63ffffffff8160e01c9160401c168101809111610b105790565b7f4e487b71000000000000000000000000000000000000000000000000000000005f52601160045260245ffd5b63ffffffff8160e01c91168101809111610b105790565b73ffffffffffffffffffffffffffffffffffffffff6055600b60405161010090816044823720604051907f0000000000000000000000000000000000000000000000000000000000000000604083015260208201527f000000000000000000000000000000000000000000000000000000000000000081520160ff815320163003610bdb57565b60046040517fa269484a000000000000000000000000000000000000000000000000000000008152fd5b73ffffffffffffffffffffffffffffffffffffffff6055600b60405161010090816004823720604051907f0000000000000000000000000000000000000000000000000000000000000000604083015260208201527f000000000000000000000000000000000000000000000000000000000000000081520160ff815320163003610bdb57565b6055600b73ffffffffffffffffffffffffffffffffffffffff926040516101008092823720604051907f0000000000000000000000000000000000000000000000000000000000000000604083015260208201527f000000000000000000000000000000000000000000000000000000000000000081520160ff815320163003610bdb57565b9160446020925f92604051917fa9059cbb0000000000000000000000000000000000000000000000000000000083526004830152602482015282855af19081610d88575b5015610d5e57565b60046040517ffb7f5079000000000000000000000000000000000000000000000000000000008152fd5b90503d15610da2575060015f5114601f3d11165b5f610d56565b3b1515610d9c565b5f80809381935af13d15610e39573d67ffffffffffffffff8111610ac95760405190610dfe60207fffffffffffffffffffffffffffffffffffffffffffffffffffffffffffffffe0601f8401160183610a88565b81525f60203d92013e5b15610e0f57565b60046040517f8a0332d5000000000000000000000000000000000000000000000000000000008152fd5b610e0856fea2646970667358221220da6b383a4d236123e19e49c30d9eea70eaa62e4b1610dbd1877f95acfb9b178764736f6c63430008170033","linkReferences":{}},"methodIdentifiers":{"FACTORY()":"2dd31000","PROXY_BYTECODE_HASH()":"34862b6a","RESCUE_DELAY()":"f56cd69c","cancel((bytes32,bytes32,uint256,uint256,uint256,uint256,uint256,uint256))":"90d3252f","publicCancel((bytes32,bytes32,uint256,uint256,uint256,uint256,uint256,uint256))":"daff233e","publicWithdraw(bytes32,(bytes32,bytes32,uint256,uint256,uint256,uint256,uint256,uint256))":"0af97558","rescueFunds(address,uint256,(bytes32,bytes32,uint256,uint256,uint256,uint256,uint256,uint256))":"4649088b","withdraw(bytes32,(bytes32,bytes32,uint256,uint256,uint256,uint256,uint256,uint256))":"23305703","withdrawTo(bytes32,address,(bytes32,bytes32,uint256,uint256,uint256,uint256,uint256,uint256))":"6c10c0c8"},"storageLayout":{"storage":[],"types":{}},"id":6}