{"abi":[{"type":"constructor","inputs":[{"name":"limitOrderProtocol","type":"address","internalType":"address"}],"stateMutability":"nonpayable"},{"type":"function","name":"lastValidated","inputs":[{"name":"key","type":"bytes32","internalType":"bytes32"}],"outputs":[{"name":"index","type":"uint256","internalType":"uint256"},{"name":"leaf","type":"bytes32","internalType":"bytes32"}],"stateMutability":"view"},{"type":"function","name":"takerInteraction","inputs":[{"name":"","type":"tuple","internalType":"struct IOrderMixin.Order","components":[{"name":"salt","type":"uint256","internalType":"uint256"},{"name":"maker","type":"uint256","internalType":"Address"},{"name":"receiver","type":"uint256","internalType":"Address"},{"name":"makerAsset","type":"uint256","internalType":"Address"},{"name":"takerAsset","type":"uint256","internalType":"Address"},{"name":"makingAmount","type":"uint256","internalType":"uint256"},{"name":"takingAmount","type":"uint256","internalType":"uint256"},{"name":"makerTraits","type":"uint256","internalType":"MakerTraits"}]},{"name":"extension","type":"bytes","internalType":"bytes"},{"name":"orderHash","type":"bytes32","internalType":"bytes32"},{"name":"","type":"address","internalType":"address"},{"name":"","type":"uint256","internalType":"uint256"},{"name":"","type":"uint256","internalType":"uint256"},{"name":"","type":"uint256","internalType":"uint256"},{"name":"extraData","type":"bytes","internalType":"bytes"}],"outputs":[],"stateMutability":"nonpayable"},{"type":"error","name":"AccessDenied","inputs":[]},{"type":"error","name":"InvalidProof","inputs":[]}],"bytecode":{"object":"0x60a03461006957601f61056238819003918201601f19168301916001600160401b0383118484101761006d5780849260209460405283398101031261006957516001600160a01b0381168103610069576080526040516104e0908161008282396080518160d00152f35b5f80fd5b634e487b7160e01b5f52604160045260245ffdfe608060409080825260049081361015610016575f80fd5b5f3560e01c908163acf4ce5c14610367575063adf38ba114610036575f80fd5b3461033b577ffffffffffffffffffffffffffffffffffffffffffffffffffffffffffffffffc36016101e0811261033b576101001361033b5767ffffffffffffffff916101043583811161033b5761009190369084016103b4565b73ffffffffffffffffffffffffffffffffffffffff9291610144358481160361033b576101c43586811161033b576100cc90369087016103b4565b50937f000000000000000000000000000000000000000000000000000000000000000016330361033f577fffffffffffffffffffffffffffffffffffffffffffffffffffffffffffffff60916101219161042b565b0101357dffffffffffffffffffffffffffffffffffffffffffffffffffffffffffff92825195602096878101906101243582527fffffffffffffffffffffffffffffffffffffffffffffffffffffffffffff00008560101b1686820152603e815261018b816103e2565b5190209282357fffffffffffffffffffffffffffffffffffffffffffffffffffffffffffffffe18436030181121561033b5783019586359183831161033b576005928060051b36038b8a011361033b579792878b8701359601359888518c8101907fffffffffffffffff0000000000000000000000000000000000000000000000008960c01b1682528b602882015260288152610227816103e2565b519020945f925b828410610302575050505081169116036102da57600182018092116102ae578351958685019182118783101761028257509160019596915f93855287528187019485528252525f2092518355519101555f80f35b6041907f4e487b71000000000000000000000000000000000000000000000000000000005f525260245ffd5b6011867f4e487b71000000000000000000000000000000000000000000000000000000005f525260245ffd5b8584517f09bde339000000000000000000000000000000000000000000000000000000008152fd5b909192958d87831b84010135908181105f1461032c575f528d5260018a5f205b960192919061022e565b905f528d5260018a5f20610322565b5f80fd5b8483517f4ca88867000000000000000000000000000000000000000000000000000000008152fd5b9190503461033b5760207ffffffffffffffffffffffffffffffffffffffffffffffffffffffffffffffffc36011261033b57355f525f602052815f20600181549101549082526020820152f35b9181601f8401121561033b5782359167ffffffffffffffff831161033b576020838186019501011161033b57565b6060810190811067ffffffffffffffff8211176103fe57604052565b7f4e487b71000000000000000000000000000000000000000000000000000000005f52604160045260245ffd5b919091602083106104a2578035907fffffffffffffffffffffffffffffffffffffffffffffffffffffffffffffffe063ffffffff8360c01c169260e01c9401841161047a578101602001920390565b7f9605a010000000000000000000000000000000000000000000000000000000005f5260045ffd5b505f9150819056fea2646970667358221220634e0a2b59d93a3d0f1d9a59847724d33378573751064605d95a1451c86c867c64736f6c63430008170033","linkReferences":{}},"methodIdentifiers":{"lastValidated(bytes32)":"acf4ce5c","takerInteraction((uint256,uint256,uint256,uint256,uint256,uint256,uint256,uint256),bytes,bytes32,address,uint256,uint256,uint256,bytes)":"adf38ba1"},"storageLayout":{"storage":[{"astId":1511,"contract":"contracts/lib/cross-chain-swap/contracts/MerkleStorageInvalidator.sol:MerkleStorageInvalidator","label":"lastValidated","offset":0,"slot":"0","type":"t_mapping(t_bytes32,t_struct(ValidationData)1912_storage)"}],"types":{"t_bytes32":{"encoding":"inplace","label":"bytes32","numberOfBytes":"32"},"t_mapping(t_bytes32,t_struct(ValidationData)1912_storage)":{"encoding":"mapping","key":"t_bytes32","label":"mapping(bytes32 => struct IMerkleStorageInvalidator.ValidationData)","numberOfBytes":"32","value":"t_struct(ValidationData)1912_storage"},"t_struct(ValidationData)1912_storage":{"encoding":"inplace","label":"struct IMerkleStorageInvalidator.ValidationData","numberOfBytes":"64","members":[{"astId":1909,"contract":"contracts/lib/cross-chain-swap/contracts/MerkleStorageInvalidator.sol:MerkleStorageInvalidator","label":"index","offset":0,"slot":"0","type":"t_uint256"},{"astId":1911,"contract":"contracts/lib/cross-chain-swap/contracts/MerkleStorageInvalidator.sol:MerkleStorageInvalidator","label":"leaf","offset":0,"slot":"1","type":"t_bytes32"}]},"t_uint256":{"encoding":"inplace","label":"uint256","numberOfBytes":"32"}}},"id":7}