{"abi":[{"type":"constructor","inputs":[{"name":"charger","type":"address","internalType":"contract IFeeBankCharger"},{"name":"feeToken","type":"address","internalType":"contract IERC20"},{"name":"owner","type":"address","internalType":"address"}],"stateMutability":"nonpayable"},{"type":"function","name":"availableCredit","inputs":[{"name":"account","type":"address","internalType":"address"}],"outputs":[{"name":"","type":"uint256","internalType":"uint256"}],"stateMutability":"view"},{"type":"function","name":"deposit","inputs":[{"name":"amount","type":"uint256","internalType":"uint256"}],"outputs":[{"name":"","type":"uint256","internalType":"uint256"}],"stateMutability":"nonpayable"},{"type":"function","name":"depositFor","inputs":[{"name":"account","type":"address","internalType":"address"},{"name":"amount","type":"uint256","internalType":"uint256"}],"outputs":[{"name":"","type":"uint256","internalType":"uint256"}],"stateMutability":"nonpayable"},{"type":"function","name":"depositForWithPermit","inputs":[{"name":"account","type":"address","internalType":"address"},{"name":"amount","type":"uint256","internalType":"uint256"},{"name":"permit","type":"bytes","internalType":"bytes"}],"outputs":[{"name":"","type":"uint256","internalType":"uint256"}],"stateMutability":"nonpayable"},{"type":"function","name":"depositWithPermit","inputs":[{"name":"amount","type":"uint256","internalType":"uint256"},{"name":"permit","type":"bytes","internalType":"bytes"}],"outputs":[{"name":"","type":"uint256","internalType":"uint256"}],"stateMutability":"nonpayable"},{"type":"function","name":"gatherFees","inputs":[{"name":"accounts","type":"address[]","internalType":"address[]"}],"outputs":[{"name":"totalAccountFees","type":"uint256","internalType":"uint256"}],"stateMutability":"nonpayable"},{"type":"function","name":"owner","inputs":[],"outputs":[{"name":"","type":"address","internalType":"address"}],"stateMutability":"view"},{"type":"function","name":"renounceOwnership","inputs":[],"outputs":[],"stateMutability":"nonpayable"},{"type":"function","name":"rescueFunds","inputs":[{"name":"token","type":"address","internalType":"contract IERC20"},{"name":"amount","type":"uint256","internalType":"uint256"}],"outputs":[],"stateMutability":"nonpayable"},{"type":"function","name":"transferOwnership","inputs":[{"name":"newOwner","type":"address","internalType":"address"}],"outputs":[],"stateMutability":"nonpayable"},{"type":"function","name":"withdraw","inputs":[{"name":"amount","type":"uint256","internalType":"uint256"}],"outputs":[{"name":"","type":"uint256","internalType":"uint256"}],"stateMutability":"nonpayable"},{"type":"function","name":"withdrawTo","inputs":[{"name":"account","type":"address","internalType":"address"},{"name":"amount","type":"uint256","internalType":"uint256"}],"outputs":[{"name":"","type":"uint256","internalType":"uint256"}],"stateMutability":"nonpayable"},{"type":"event","name":"OwnershipTransferred","inputs":[{"name":"previousOwner","type":"address","indexed":true,"internalType":"address"},{"name":"newOwner","type":"address","indexed":true,"internalType":"address"}],"anonymous":false},{"type":"error","name":"ETHTransferFailed","inputs":[]},{"type":"error","name":"InsufficientBalance","inputs":[]},{"type":"error","name":"OwnableInvalidOwner","inputs":[{"name":"owner","type":"address","internalType":"address"}]},{"type":"error","name":"OwnableUnauthorizedAccount","inputs":[{"name":"account","type":"address","internalType":"address"}]},{"type":"error","name":"SafeTransferFailed","inputs":[]},{"type":"error","name":"SafeTransferFromFailed","inputs":[]},{"type":"error","name":"ZeroAddress","inputs":[]}],"bytecode":{"object":"0x60c03461013057601f61121f38819003918201601f19168301916001600160401b03831184841017610134578084926060946040528339810103126101305780516001600160a01b03808216820361013057602083015192818416908185036101305760400151828116809103610130578015610118575f80546001600160a01b03198116831782556040519416907f8be0079c531659141344cd1fd0a4f28419497f9722a3daafe3b4186f6b6457e09080a315610109575060a0526080526040516110d6908161014982396080518181816102eb015281816108d401528181610d8f0152610e0e015260a0518181816102b8015281816106d701528181610d310152610ee40152f35b63d92e233d60e01b8152600490fd5b604051631e4fbdf760e01b81525f6004820152602490fd5b5f80fd5b634e487b7160e01b5f52604160045260245ffdfe604060808152600480361015610013575f80fd5b5f3560e01c8063205c2878146108345780632e1a7d4d146107f65780632f4f21e2146107b057806332d323a5146107475780635886216f14610652578063715018a6146105b857806378e3214f146104295780638da5cb5b146103d857806397a2cb6414610225578063b6b55f25146101e7578063bfe91734146101835763f2fde38b1461009f575f80fd5b3461017f5760207ffffffffffffffffffffffffffffffffffffffffffffffffffffffffffffffffc36011261017f576100d661087a565b906100df610fb8565b73ffffffffffffffffffffffffffffffffffffffff8092169283156101505750505f54827fffffffffffffffffffffffff00000000000000000000000000000000000000008216175f55167f8be0079c531659141344cd1fd0a4f28419497f9722a3daafe3b4186f6b6457e05f80a3005b905f60249251917f1e4fbdf7000000000000000000000000000000000000000000000000000000008352820152fd5b5f80fd5b50903461017f57807ffffffffffffffffffffffffffffffffffffffffffffffffffffffffffffffffc36011261017f5760243567ffffffffffffffff811161017f576020926101d86101e0923690830161089d565b9135336108cb565b9051908152f35b50903461017f5760207ffffffffffffffffffffffffffffffffffffffffffffffffffffffffffffffffc36011261017f576101e06020923533610de9565b503461017f57602091827ffffffffffffffffffffffffffffffffffffffffffffffffffffffffffffffffc36011261017f57813567ffffffffffffffff80821161017f573660238301121561017f578184013590811161017f5760059360243683871b850182011161017f57949061029b610fb8565b5f955f9473ffffffffffffffffffffffffffffffffffffffff90817f000000000000000000000000000000000000000000000000000000000000000016945b868810610315578a8a8a61030f82337f0000000000000000000000000000000000000000000000000000000000000000611008565b51908152f35b9091929394959698848a831b840101359084821680920361017f575f8281526001808e52908b9020548b517f5886216f000000000000000000000000000000000000000000000000000000008152808a0185905293918e858a818e5afa9283156103ce578f905f9461039e575b600196505f5252818c5f205503019901969594939291906102da565b935085813d83116103c7575b6103b48183610c84565b8101031261017f578e6001955193610382565b503d6103aa565b8d513d5f823e3d90fd5b823461017f575f7ffffffffffffffffffffffffffffffffffffffffffffffffffffffffffffffffc36011261017f5760209073ffffffffffffffffffffffffffffffffffffffff5f54169051908152f35b50903461017f57807ffffffffffffffffffffffffffffffffffffffffffffffffffffffffffffffffc36011261017f57813573ffffffffffffffffffffffffffffffffffffffff81169081810361017f5760243591610486610fb8565b8261048d57005b801590811561059a575b50156105895750804710610562575f8080809333611388f13d1561055d573d67ffffffffffffffff8111610531578251906104fa60207fffffffffffffffffffffffffffffffffffffffffffffffffffffffffffffffe0601f8401160183610c84565b81525f60203d92013e5b1561050b57005b517fb12d13eb000000000000000000000000000000000000000000000000000000008152fd5b6041847f4e487b71000000000000000000000000000000000000000000000000000000005f525260245ffd5b610504565b50517ff4d678b8000000000000000000000000000000000000000000000000000000008152fd5b90915061059892503390611008565b005b73eeeeeeeeeeeeeeeeeeeeeeeeeeeeeeeeeeeeeeee9150145f610497565b3461017f575f7ffffffffffffffffffffffffffffffffffffffffffffffffffffffffffffffffc36011261017f576105ee610fb8565b5f73ffffffffffffffffffffffffffffffffffffffff81547fffffffffffffffffffffffff000000000000000000000000000000000000000081168355167f8be0079c531659141344cd1fd0a4f28419497f9722a3daafe3b4186f6b6457e08280a3005b503461017f57602091827ffffffffffffffffffffffffffffffffffffffffffffffffffffffffffffffffc36011261017f578261068d61087a565b602473ffffffffffffffffffffffffffffffffffffffff9182855196879485937f5886216f00000000000000000000000000000000000000000000000000000000855216908301527f0000000000000000000000000000000000000000000000000000000000000000165afa91821561073d575f9261070e575b5051908152f35b9091508281813d8311610736575b6107268183610c84565b8101031261017f5751905f610707565b503d61071c565b50513d5f823e3d90fd5b50903461017f5760607ffffffffffffffffffffffffffffffffffffffffffffffffffffffffffffffffc36011261017f5761078061087a565b916044359267ffffffffffffffff841161017f576107a66101e09260209536910161089d565b91602435906108cb565b823461017f57807ffffffffffffffffffffffffffffffffffffffffffffffffffffffffffffffffc36011261017f576020906101e06107ed61087a565b60243590610de9565b50903461017f5760207ffffffffffffffffffffffffffffffffffffffffffffffffffffffffffffffffc36011261017f576101e06020923533610cf2565b823461017f57807ffffffffffffffffffffffffffffffffffffffffffffffffffffffffffffffffc36011261017f576020906101e061087161087a565b60243590610cf2565b6004359073ffffffffffffffffffffffffffffffffffffffff8216820361017f57565b9181601f8401121561017f5782359167ffffffffffffffff831161017f576020838186019501011161017f57565b925f91929082917f000000000000000000000000000000000000000000000000000000000000000091604051918180606414610bce5780604814610b0c578060e014610ad3578061010014610a9857806060146109c25761016014610978578185926004927f9fd5a6cf0000000000000000000000000000000000000000000000000000000086528386013701925af15b1561096d5761096a91610de9565b90565b6040513d5f823e3d90fd5b610164935061016091507f2b67b5700000000000000000000000000000000000000000000000000000000083526004830137826e22d473030f116ddee9f6b43ac78ba35af161095c565b5060209150604090610164947f2b67b570000000000000000000000000000000000000000000000000000000008552336004860152602485015260148160508601377fffffffffffffffffffffffffffffffffffffffffffffffffffffffffffffffff65ffffffffffff9080601484013560e01c0182166064870152601883013560e01c60848701523060a4870152601c83013560e01c011660c485015261010060e4850152816101048501528280820161012486013701610144830137826e22d473030f116ddee9f6b43ac78ba35af161095c565b5084915092610100610104947f8fcbaf0c00000000000000000000000000000000000000000000000000000000855260048501375af161095c565b508491509260e060e4947fd505accf00000000000000000000000000000000000000000000000000000000855260048501375af161095c565b50849150927f7fffffffffffffffffffffffffffffffffffffffffffffffffffffffffffffff610104947f8fcbaf0c00000000000000000000000000000000000000000000000000000000855233600486015230602486015260206008602883013592803560e01c60448901527fffffffffffffffffffffffffffffffffffffffffffffffffffffffffffffffff600482013560e01c016064890152600160848901528360ff1c601b0160a48901520160c48701371660e48401525af161095c565b50849150927f7fffffffffffffffffffffffffffffffffffffffffffffffffffffffffffffff60e4947fd505accf00000000000000000000000000000000000000000000000000000000855233600486015230602486015260206024604483013592828160448a01377fffffffffffffffffffffffffffffffffffffffffffffffffffffffffffffffff8382013560e01c0160648901528360ff1c601b0160848901520160a48701371660c48401525af161095c565b90601f7fffffffffffffffffffffffffffffffffffffffffffffffffffffffffffffffe0910116810190811067ffffffffffffffff821117610cc557604052565b7f4e487b71000000000000000000000000000000000000000000000000000000005f52604160045260245ffd5b6040517f85eda2de000000000000000000000000000000000000000000000000000000008152336004820152602481018390529092916020826044815f7f000000000000000000000000000000000000000000000000000000000000000073ffffffffffffffffffffffffffffffffffffffff165af1801561096d575f90610db5575b610db3925093335f52600160205260405f208281540390557f0000000000000000000000000000000000000000000000000000000000000000611008565b565b506020823d602011610de1575b81610dcf60209383610c84565b8101031261017f57610db39151610d75565b3d9150610dc2565b73ffffffffffffffffffffffffffffffffffffffff91828216908115610f8e576064937f00000000000000000000000000000000000000000000000000000000000000006040517f23b872dd0000000000000000000000000000000000000000000000000000000081523360048201523060248201528360448201525f602097889282855af19081610f6c575b5015610f42575f928352600185526040808420805484019055517f3ee5ef1f00000000000000000000000000000000000000000000000000000000815273ffffffffffffffffffffffffffffffffffffffff94909416600485015260248401919091528391839160449183917f0000000000000000000000000000000000000000000000000000000000000000165af191821561096d575f92610f1857505090565b90809250813d8311610f3b575b610f2f8183610c84565b8101031261017f575190565b503d610f25565b60046040517ff4059071000000000000000000000000000000000000000000000000000000008152fd5b90503d15610f86575060015f5114601f3d11165b5f610e76565b3b1515610f80565b60046040517fd92e233d000000000000000000000000000000000000000000000000000000008152fd5b73ffffffffffffffffffffffffffffffffffffffff5f54163303610fd857565b60246040517f118cdaa7000000000000000000000000000000000000000000000000000000008152336004820152fd5b9160446020925f92604051917fa9059cbb0000000000000000000000000000000000000000000000000000000083526004830152602482015282855af1908161107e575b501561105457565b60046040517ffb7f5079000000000000000000000000000000000000000000000000000000008152fd5b90503d15611098575060015f5114601f3d11165b5f61104c565b3b151561109256fea2646970667358221220daeaafc591a374d885bfa2ca9d12c58ca8dc76f3008569822cf96c4211fb6eb564736f6c63430008170033","linkReferences":{}},"methodIdentifiers":{"availableCredit(address)":"5886216f","deposit(uint256)":"b6b55f25","depositFor(address,uint256)":"2f4f21e2","depositForWithPermit(address,uint256,bytes)":"32d323a5","depositWithPermit(uint256,bytes)":"bfe91734","gatherFees(address[])":"97a2cb64","owner()":"8da5cb5b","renounceOwnership()":"715018a6","rescueFunds(address,uint256)":"78e3214f","transferOwnership(address)":"f2fde38b","withdraw(uint256)":"2e1a7d4d","withdrawTo(address,uint256)":"205c2878"},"storageLayout":{"storage":[{"astId":4927,"contract":"contracts/lib/cross-chain-swap/lib/limit-order-settlement/contracts/FeeBank.sol:FeeBank","label":"_owner","offset":0,"slot":"0","type":"t_address"},{"astId":3389,"contract":"contracts/lib/cross-chain-swap/lib/limit-order-settlement/contracts/FeeBank.sol:FeeBank","label":"_accountDeposits","offset":0,"slot":"1","type":"t_mapping(t_address,t_uint256)"}],"types":{"t_address":{"encoding":"inplace","label":"address","numberOfBytes":"20"},"t_mapping(t_address,t_uint256)":{"encoding":"mapping","key":"t_address","label":"mapping(address => uint256)","numberOfBytes":"32","value":"t_uint256"},"t_uint256":{"encoding":"inplace","label":"uint256","numberOfBytes":"32"}}},"id":27}